{
        "contractName": "PharmaTrust",
        "abi": [
                {
                        "inputs": [],
                        "stateMutability": "nonpayable",
                        "type": "constructor"
                },
                {
                        "inputs": [
                                {
                                        "internalType": "uint256",
                                        "name": "",
                                        "type": "uint256"
                                }
                        ],
                        "name": "DIST",
                        "outputs": [
                                {
                                        "internalType": "address",
                                        "name": "addr",
                                        "type": "address"
                                },
                                {
                                        "internalType": "uint256",
                                        "name": "id",
                                        "type": "uint256"
                                },
                                {
                                        "internalType": "string",
                                        "name": "name",
                                        "type": "string"
                                },
                                {
                                        "internalType": "string",
                                        "name": "place",
                                        "type": "string"
                                }
                        ],
                        "stateMutability": "view",
                        "type": "function"
                },
                {
                        "inputs": [],
                        "name": "Government",
                        "outputs": [
                                {
                                        "internalType": "address",
                                        "name": "",
                                        "type": "address"
                                }
                        ],
                        "stateMutability": "view",
                        "type": "function"
                },
                {
                        "inputs": [
                                {
                                        "internalType": "uint256",
                                        "name": "",
                                        "type": "uint256"
                                }
                        ],
                        "name": "MAN",
                        "outputs": [
                                {
                                        "internalType": "address",
                                        "name": "addr",
                                        "type": "address"
                                },
                                {
                                        "internalType": "uint256",
                                        "name": "id",
                                        "type": "uint256"
                                },
                                {
                                        "internalType": "string",
                                        "name": "name",
                                        "type": "string"
                                },
                                {
                                        "internalType": "string",
                                        "name": "place",
                                        "type": "string"
                                }
                        ],
                        "stateMutability": "view",
                        "type": "function"
                },
                {
                        "inputs": [
                                {
                                        "internalType": "uint256",
                                        "name": "",
                                        "type": "uint256"
                                }
                        ],
                        "name": "RET",
                        "outputs": [
                                {
                                        "internalType": "address",
                                        "name": "addr",
                                        "type": "address"
                                },
                                {
                                        "internalType": "uint256",
                                        "name": "id",
                                        "type": "uint256"
                                },
                                {
                                        "internalType": "string",
                                        "name": "name",
                                        "type": "string"
                                },
                                {
                                        "internalType": "string",
                                        "name": "place",
                                        "type": "string"
                                }
                        ],
                        "stateMutability": "view",
                        "type": "function"
                },
                {
                        "inputs": [
                                {
                                        "internalType": "uint256",
                                        "name": "",
                                        "type": "uint256"
                                }
                        ],
                        "name": "RMS",
                        "outputs": [
                                {
                                        "internalType": "address",
                                        "name": "addr",
                                        "type": "address"
                                },
                                {
                                        "internalType": "uint256",
                                        "name": "id",
                                        "type": "uint256"
                                },
                                {
                                        "internalType": "string",
                                        "name": "name",
                                        "type": "string"
                                },
                                {
                                        "internalType": "string",
                                        "name": "place",
                                        "type": "string"
                                }
                        ],
                        "stateMutability": "view",
                        "type": "function"
                },
                {
                        "inputs": [
                                {
                                        "internalType": "address",
                                        "name": "",
                                        "type": "address"
                                }
                        ],
                        "name": "distAddresses",
                        "outputs": [
                                {
                                        "internalType": "uint256",
                                        "name": "",
                                        "type": "uint256"
                                }
                        ],
                        "stateMutability": "view",
                        "type": "function"
                },
                {
                        "inputs": [],
                        "name": "distCount",
                        "outputs": [
                                {
                                        "internalType": "uint256",
                                        "name": "",
                                        "type": "uint256"
                                }
                        ],
                        "stateMutability": "view",
                        "type": "function"
                },
                {
                        "inputs": [
                                {
                                        "internalType": "address",
                                        "name": "",
                                        "type": "address"
                                }
                        ],
                        "name": "manAddresses",
                        "outputs": [
                                {
                                        "internalType": "uint256",
                                        "name": "",
                                        "type": "uint256"
                                }
                        ],
                        "stateMutability": "view",
                        "type": "function"
                },
                {
                        "inputs": [],
                        "name": "manCount",
                        "outputs": [
                                {
                                        "internalType": "uint256",
                                        "name": "",
                                        "type": "uint256"
                                }
                        ],
                        "stateMutability": "view",
                        "type": "function"
                },
                {
                        "inputs": [
                                {
                                        "internalType": "uint256",
                                        "name": "",
                                        "type": "uint256"
                                }
                        ],
                        "name": "medAvailable",
                        "outputs": [
                                {
                                        "internalType": "uint256",
                                        "name": "id",
                                        "type": "uint256"
                                },
                                {
                                        "internalType": "string",
                                        "name": "name",
                                        "type": "string"
                                },
                                {
                                        "internalType": "string",
                                        "name": "expDate",
                                        "type": "string"
                                },
                                {
                                        "internalType": "string",
                                        "name": "description",
                                        "type": "string"
                                },
                                {
                                        "internalType": "uint256",
                                        "name": "RMSid",
                                        "type": "uint256"
                                },
                                {
                                        "internalType": "uint256",
                                        "name": "MANid",
                                        "type": "uint256"
                                },
                                {
                                        "internalType": "uint256",
                                        "name": "DISTid",
                                        "type": "uint256"
                                },
                                {
                                        "internalType": "uint256",
                                        "name": "RETid",
                                        "type": "uint256"
                                },
                                {
                                        "internalType": "enum PharmaTrust.STAGE",
                                        "name": "stage",
                                        "type": "uint8"
                                },
                                {
                                        "internalType": "uint256",
                                        "name": "CounterfeitAttempts",
                                        "type": "uint256"
                                }
                        ],
                        "stateMutability": "view",
                        "type": "function"
                },
                {
                        "inputs": [],
                        "name": "medicineCount",
                        "outputs": [
                                {
                                        "internalType": "uint256",
                                        "name": "",
                                        "type": "uint256"
                                }
                        ],
                        "stateMutability": "view",
                        "type": "function"
                },
                {
                        "inputs": [],
                        "name": "phCount",
                        "outputs": [
                                {
                                        "internalType": "uint256",
                                        "name": "",
                                        "type": "uint256"
                                }
                        ],
                        "stateMutability": "view",
                        "type": "function"
                },
                {
                        "inputs": [
                                {
                                        "internalType": "address",
                                        "name": "",
                                        "type": "address"
                                }
                        ],
                        "name": "retAddresses",
                        "outputs": [
                                {
                                        "internalType": "uint256",
                                        "name": "",
                                        "type": "uint256"
                                }
                        ],
                        "stateMutability": "view",
                        "type": "function"
                },
                {
                        "inputs": [
                                {
                                        "internalType": "address",
                                        "name": "",
                                        "type": "address"
                                }
                        ],
                        "name": "rmsAddresses",
                        "outputs": [
                                {
                                        "internalType": "uint256",
                                        "name": "",
                                        "type": "uint256"
                                }
                        ],
                        "stateMutability": "view",
                        "type": "function"
                },
                {
                        "inputs": [],
                        "name": "rmsCount",
                        "outputs": [
                                {
                                        "internalType": "uint256",
                                        "name": "",
                                        "type": "uint256"
                                }
                        ],
                        "stateMutability": "view",
                        "type": "function"
                },
                {
                        "inputs": [
                                {
                                        "internalType": "uint256",
                                        "name": "_medicineID",
                                        "type": "uint256"
                                }
                        ],
                        "name": "showStage",
                        "outputs": [
                                {
                                        "internalType": "string",
                                        "name": "",
                                        "type": "string"
                                }
                        ],
                        "stateMutability": "view",
                        "type": "function"
                },
                {
                        "inputs": [
                                {
                                        "internalType": "address",
                                        "name": "_address",
                                        "type": "address"
                                },
                                {
                                        "internalType": "string",
                                        "name": "_name",
                                        "type": "string"
                                },
                                {
                                        "internalType": "string",
                                        "name": "_place",
                                        "type": "string"
                                }
                        ],
                        "name": "addRMS",
                        "outputs": [],
                        "stateMutability": "nonpayable",
                        "type": "function"
                },
                {
                        "inputs": [
                                {
                                        "internalType": "address",
                                        "name": "_address",
                                        "type": "address"
                                },
                                {
                                        "internalType": "string",
                                        "name": "_name",
                                        "type": "string"
                                },
                                {
                                        "internalType": "string",
                                        "name": "_place",
                                        "type": "string"
                                }
                        ],
                        "name": "addManufacturer",
                        "outputs": [],
                        "stateMutability": "nonpayable",
                        "type": "function"
                },
                {
                        "inputs": [
                                {
                                        "internalType": "address",
                                        "name": "_address",
                                        "type": "address"
                                },
                                {
                                        "internalType": "string",
                                        "name": "_name",
                                        "type": "string"
                                },
                                {
                                        "internalType": "string",
                                        "name": "_place",
                                        "type": "string"
                                }
                        ],
                        "name": "addDistributor",
                        "outputs": [],
                        "stateMutability": "nonpayable",
                        "type": "function"
                },
                {
                        "inputs": [
                                {
                                        "internalType": "address",
                                        "name": "_address",
                                        "type": "address"
                                },
                                {
                                        "internalType": "string",
                                        "name": "_name",
                                        "type": "string"
                                },
                                {
                                        "internalType": "string",
                                        "name": "_place",
                                        "type": "string"
                                }
                        ],
                        "name": "addRetailer",
                        "outputs": [],
                        "stateMutability": "nonpayable",
                        "type": "function"
                },
                {
                        "inputs": [
                                {
                                        "internalType": "uint256",
                                        "name": "_medicineID",
                                        "type": "uint256"
                                }
                        ],
                        "name": "deniedByRMS",
                        "outputs": [],
                        "stateMutability": "nonpayable",
                        "type": "function"
                },
                {
                        "inputs": [
                                {
                                        "internalType": "uint256",
                                        "name": "_medicineID",
                                        "type": "uint256"
                                }
                        ],
                        "name": "RMSsupply",
                        "outputs": [],
                        "stateMutability": "nonpayable",
                        "type": "function"
                },
                {
                        "inputs": [
                                {
                                        "internalType": "uint256",
                                        "name": "_medicineID",
                                        "type": "uint256"
                                }
                        ],
                        "name": "Manufacturing",
                        "outputs": [],
                        "stateMutability": "nonpayable",
                        "type": "function"
                },
                {
                        "inputs": [
                                {
                                        "internalType": "uint256",
                                        "name": "_medicineID",
                                        "type": "uint256"
                                }
                        ],
                        "name": "Distribute",
                        "outputs": [],
                        "stateMutability": "nonpayable",
                        "type": "function"
                },
                {
                        "inputs": [
                                {
                                        "internalType": "uint256",
                                        "name": "_medicineID",
                                        "type": "uint256"
                                }
                        ],
                        "name": "Retail",
                        "outputs": [],
                        "stateMutability": "nonpayable",
                        "type": "function"
                },
                {
                        "inputs": [
                                {
                                        "internalType": "uint256",
                                        "name": "_medicineID",
                                        "type": "uint256"
                                }
                        ],
                        "name": "sold",
                        "outputs": [],
                        "stateMutability": "nonpayable",
                        "type": "function"
                },
                {
                        "inputs": [
                                {
                                        "internalType": "uint256",
                                        "name": "_medicineID",
                                        "type": "uint256"
                                }
                        ],
                        "name": "terminateMedicine",
                        "outputs": [],
                        "stateMutability": "nonpayable",
                        "type": "function"
                },
                {
                        "inputs": [
                                {
                                        "internalType": "uint256",
                                        "name": "_medicineID",
                                        "type": "uint256"
                                }
                        ],
                        "name": "CounterfeitAttempt",
                        "outputs": [],
                        "stateMutability": "nonpayable",
                        "type": "function"
                },
                {
                        "inputs": [
                                {
                                        "internalType": "string",
                                        "name": "_name",
                                        "type": "string"
                                },
                                {
                                        "internalType": "string",
                                        "name": "_expdate",
                                        "type": "string"
                                },
                                {
                                        "internalType": "string",
                                        "name": "_description",
                                        "type": "string"
                                }
                        ],
                        "name": "addMedicine",
                        "outputs": [],
                        "stateMutability": "nonpayable",
                        "type": "function"
                }
        ],
        "bytecode": "0x60806040526000600155600060025560006003556000600455600060055534801561002957600080fd5b50336000806101000a81548173ffffffffffffffffffffffffffffffffffffffff021916908373ffffffffffffffffffffffffffffffffffffffff160217905550612ce0806100796000396000f3fe608060405234801561001057600080fd5b50600436106101cf5760003560e01c806371adce6211610104578063a48d335a116100a2578063d84053bb11610071578063d84053bb1461054c578063e101a2e014610568578063e466385314610598578063eef5cb40146105b6576101cf565b8063a48d335a1461049a578063c183d3c5146104b6578063cc403069146104e6578063d42510b614610519576101cf565b8063808bccb6116100de578063808bccb61461042a578063857ddb041461044657806386c18275146104625780639c03facb1461047e576101cf565b806371adce62146103d25780637b855ae4146103ee5780637c25f2601461040c576101cf565b80633d753a1c116101715780634dafd4901161014b5780634dafd490146103495780634def474a1461036757806359bf286f146103835780636a992c9f146103b6576101cf565b80633d753a1c146102df5780634582de46146102fb5780634d3fdae91461032b576101cf565b8063232a4094116101ad578063232a40941461023e5780632a4af4401461026e5780632b70b08d1461028a5780633c1820c2146102a6576101cf565b806302e0d9fa146101d4578063030c790f146101f257806307bd83c51461020e575b600080fd5b6101dc6105e9565b6040516101e991906124fb565b60405180910390f35b61020c60048036038101906102079190612670565b6105ef565b005b61022860048036038101906102239190612775565b61079d565b60405161023591906124fb565b60405180910390f35b61025860048036038101906102539190612775565b6107b5565b60405161026591906124fb565b60405180910390f35b610288600480360381019061028391906127a2565b6107cd565b005b6102a4600480360381019061029f91906127a2565b610964565b005b6102c060048036038101906102bb9190612859565b610afb565b6040516102d69a99989796959493929190612985565b60405180910390f35b6102f960048036038101906102f49190612859565b610cf4565b005b61031560048036038101906103109190612775565b610ddb565b60405161032291906124fb565b60405180910390f35b610333610df3565b60405161034091906124fb565b60405180910390f35b610351610df9565b60405161035e91906124fb565b60405180910390f35b610381600480360381019061037c9190612859565b610dff565b005b61039d60048036038101906103989190612859565b610ee6565b6040516103ad9493929190612a45565b60405180910390f35b6103d060048036038101906103cb91906127a2565b611046565b005b6103ec60048036038101906103e79190612859565b6111dd565b005b6103f6611293565b60405161040391906124fb565b60405180910390f35b610414611299565b6040516104219190612a98565b60405180910390f35b610444600480360381019061043f9190612859565b6112bd565b005b610460600480360381019061045b91906127a2565b611389565b005b61047c60048036038101906104779190612859565b611520565b005b61049860048036038101906104939190612859565b611659565b005b6104b460048036038101906104af9190612859565b611746565b005b6104d060048036038101906104cb9190612775565b61182d565b6040516104dd91906124fb565b60405180910390f35b61050060048036038101906104fb9190612859565b611845565b6040516105109493929190612a45565b60405180910390f35b610533600480360381019061052e9190612859565b6119a5565b6040516105439493929190612a45565b60405180910390f35b61056660048036038101906105619190612859565b611b05565b005b610582600480360381019061057d9190612859565b611ccf565b60405161058f9190612ab3565b60405180910390f35b6105a061217d565b6040516105ad91906124fb565b60405180910390f35b6105d060048036038101906105cb9190612859565b612183565b6040516105e09493929190612a45565b60405180910390f35b60055481565b60006105fa336122e3565b90506000811161060957600080fd5b600060025411801561061d57506000600354115b801561062b57506000600454115b801561063957506000600554115b61064257600080fd5b6001600081548092919061065590612b04565b9190505550604051806101400160405280600154815260200185815260200184815260200183815260200160008152602001600081526020016000815260200160008152602001600060078111156106b0576106af61290e565b5b815260200160008152506006600060015481526020019081526020016000206000820151816000015560208201518160010190805190602001906106f592919061243f565b50604082015181600201908051906020019061071292919061243f565b50606082015181600301908051906020019061072f92919061243f565b506080820151816004015560a0820151816005015560c0820151816006015560e082015181600701556101008201518160080160006101000a81548160ff021916908360078111156107845761078361290e565b5b0217905550610120820151816009015590505050505050565b60086020528060005260406000206000915090505481565b600c6020528060005260406000206000915090505481565b60008054906101000a900473ffffffffffffffffffffffffffffffffffffffff1673ffffffffffffffffffffffffffffffffffffffff163373ffffffffffffffffffffffffffffffffffffffff161461082557600080fd5b6004600081548092919061083890612b04565b919050555060405180608001604052808473ffffffffffffffffffffffffffffffffffffffff168152602001600454815260200183815260200182815250600b6000600454815260200190815260200160002060008201518160000160006101000a81548173ffffffffffffffffffffffffffffffffffffffff021916908373ffffffffffffffffffffffffffffffffffffffff1602179055506020820151816001015560408201518160020190805190602001906108f892919061243f565b50606082015181600301908051906020019061091592919061243f565b50905050600454600c60008573ffffffffffffffffffffffffffffffffffffffff1673ffffffffffffffffffffffffffffffffffffffff16815260200190815260200160002081905550505050565b60008054906101000a900473ffffffffffffffffffffffffffffffffffffffff1673ffffffffffffffffffffffffffffffffffffffff163373ffffffffffffffffffffffffffffffffffffffff16146109bc57600080fd5b600260008154809291906109cf90612b04565b919050555060405180608001604052808473ffffffffffffffffffffffffffffffffffffffff16815260200160025481526020018381526020018281525060076000600254815260200190815260200160002060008201518160000160006101000a81548173ffffffffffffffffffffffffffffffffffffffff021916908373ffffffffffffffffffffffffffffffffffffffff160217905550602082015181600101556040820151816002019080519060200190610a8f92919061243f565b506060820151816003019080519060200190610aac92919061243f565b50905050600254600860008573ffffffffffffffffffffffffffffffffffffffff1673ffffffffffffffffffffffffffffffffffffffff16815260200190815260200160002081905550505050565b6006602052806000526040600020600091509050806000015490806001018054610b2490612b7b565b80601f0160208091040260200160405190810160405280929190818152602001828054610b5090612b7b565b8015610b9d5780601f10610b7257610100808354040283529160200191610b9d565b820191906000526020600020905b815481529060010190602001808311610b8057829003601f168201915b505050505090806002018054610bb290612b7b565b80601f0160208091040260200160405190810160405280929190818152602001828054610bde90612b7b565b8015610c2b5780601f10610c0057610100808354040283529160200191610c2b565b820191906000526020600020905b815481529060010190602001808311610c0e57829003601f168201915b505050505090806003018054610c4090612b7b565b80601f0160208091040260200160405190810160405280929190818152602001828054610c6c90612b7b565b8015610cb95780601f10610c8e57610100808354040283529160200191610cb9565b820191906000526020600020905b815481529060010190602001808311610c9c57829003601f168201915b5050505050908060040154908060050154908060060154908060070154908060080160009054906101000a900460ff1690806009015490508a565b600081118015610d0657506001548111155b610d0f57600080fd5b6000610d1a336122e3565b905060008111610d2957600080fd5b60046007811115610d3d57610d3c61290e565b5b6006600084815260200190815260200160002060080160009054906101000a900460ff166007811115610d7357610d7261290e565b5b14610d7d57600080fd5b80600660008481526020019081526020016000206007018190555060056006600084815260200190815260200160002060080160006101000a81548160ff02191690836007811115610dd257610dd161290e565b5b02179055505050565b600a6020528060005260406000206000915090505481565b60045481565b60015481565b600081118015610e1157506001548111155b610e1a57600080fd5b6000610e253361233a565b905060008111610e3457600080fd5b60036007811115610e4857610e4761290e565b5b6006600084815260200190815260200160002060080160009054906101000a900460ff166007811115610e7e57610e7d61290e565b5b14610e8857600080fd5b80600660008481526020019081526020016000206006018190555060046006600084815260200190815260200160002060080160006101000a81548160ff02191690836007811115610edd57610edc61290e565b5b02179055505050565b600d6020528060005260406000206000915090508060000160009054906101000a900473ffffffffffffffffffffffffffffffffffffffff1690806001015490806002018054610f3590612b7b565b80601f0160208091040260200160405190810160405280929190818152602001828054610f6190612b7b565b8015610fae5780601f10610f8357610100808354040283529160200191610fae565b820191906000526020600020905b815481529060010190602001808311610f9157829003601f168201915b505050505090806003018054610fc390612b7b565b80601f0160208091040260200160405190810160405280929190818152602001828054610fef90612b7b565b801561103c5780601f106110115761010080835404028352916020019161103c565b820191906000526020600020905b81548152906001019060200180831161101f57829003601f168201915b5050505050905084565b60008054906101000a900473ffffffffffffffffffffffffffffffffffffffff1673ffffffffffffffffffffffffffffffffffffffff163373ffffffffffffffffffffffffffffffffffffffff161461109e57600080fd5b600360008154809291906110b190612b04565b919050555060405180608001604052808473ffffffffffffffffffffffffffffffffffffffff16815260200160035481526020018381526020018281525060096000600354815260200190815260200160002060008201518160000160006101000a81548173ffffffffffffffffffffffffffffffffffffffff021916908373ffffffffffffffffffffffffffffffffffffffff16021790555060208201518160010155604082015181600201908051906020019061117192919061243f565b50606082015181600301908051906020019061118e92919061243f565b50905050600354600a60008573ffffffffffffffffffffffffffffffffffffffff1673ffffffffffffffffffffffffffffffffffffffff16815260200190815260200160002081905550505050565b6000811180156111ef57506001548111155b6111f857600080fd5b600061120333612391565b90506000611210336123e8565b9050600061121d3361233a565b9050600061122a336122e3565b9050600015156000851180156112405750600084115b801561124c5750600083115b80156112585750600082115b15150361128c5760066000868152602001908152602001600020600901600081548092919061128690612b04565b91905055505b5050505050565b60035481565b60008054906101000a900473ffffffffffffffffffffffffffffffffffffffff1681565b6000811180156112cf57506001548111155b6112d857600080fd5b60006112e3336123e8565b9050600081116112f257600080fd5b600060078111156113065761130561290e565b5b6006600084815260200190815260200160002060080160009054906101000a900460ff16600781111561133c5761133b61290e565b5b1461134657600080fd5b60016006600084815260200190815260200160002060080160006101000a81548160ff021916908360078111156113805761137f61290e565b5b02179055505050565b60008054906101000a900473ffffffffffffffffffffffffffffffffffffffff1673ffffffffffffffffffffffffffffffffffffffff163373ffffffffffffffffffffffffffffffffffffffff16146113e157600080fd5b600560008154809291906113f490612b04565b919050555060405180608001604052808473ffffffffffffffffffffffffffffffffffffffff168152602001600554815260200183815260200182815250600d6000600554815260200190815260200160002060008201518160000160006101000a81548173ffffffffffffffffffffffffffffffffffffffff021916908373ffffffffffffffffffffffffffffffffffffffff1602179055506020820151816001015560408201518160020190805190602001906114b492919061243f565b5060608201518160030190805190602001906114d192919061243f565b50905050600554600e60008573ffffffffffffffffffffffffffffffffffffffff1673ffffffffffffffffffffffffffffffffffffffff16815260200190815260200160002081905550505050565b60008111801561153257506001548111155b61153b57600080fd5b6000611546336123e8565b90506000811161155557600080fd5b600060078111156115695761156861290e565b5b6006600084815260200190815260200160002060080160009054906101000a900460ff16600781111561159f5761159e61290e565b5b14806115f25750600160078111156115ba576115b961290e565b5b6006600084815260200190815260200160002060080160009054906101000a900460ff1660078111156115f0576115ef61290e565b5b145b6115fb57600080fd5b80600660008481526020019081526020016000206004018190555060026006600084815260200190815260200160002060080160006101000a81548160ff021916908360078111156116505761164f61290e565b5b02179055505050565b60008111801561166b57506001548111155b61167457600080fd5b600061167f336122e3565b90506000811161168e57600080fd5b600660008381526020019081526020016000206007015481146116b057600080fd5b600560078111156116c4576116c361290e565b5b6006600084815260200190815260200160002060080160009054906101000a900460ff1660078111156116fa576116f961290e565b5b1461170457600080fd5b600680600084815260200190815260200160002060080160006101000a81548160ff0219169083600781111561173d5761173c61290e565b5b02179055505050565b60008111801561175857506001548111155b61176157600080fd5b600061176c33612391565b90506000811161177b57600080fd5b6002600781111561178f5761178e61290e565b5b6006600084815260200190815260200160002060080160009054906101000a900460ff1660078111156117c5576117c461290e565b5b146117cf57600080fd5b80600660008481526020019081526020016000206005018190555060036006600084815260200190815260200160002060080160006101000a81548160ff021916908360078111156118245761182361290e565b5b02179055505050565b600e6020528060005260406000206000915090505481565b60096020528060005260406000206000915090508060000160009054906101000a900473ffffffffffffffffffffffffffffffffffffffff169080600101549080600201805461189490612b7b565b80601f01602080910402602001604051908101604052809291908181526020018280546118c090612b7b565b801561190d5780601f106118e25761010080835404028352916020019161190d565b820191906000526020600020905b8154815290600101906020018083116118f057829003601f168201915b50505050509080600301805461192290612b7b565b80601f016020809104026020016040519081016040528092919081815260200182805461194e90612b7b565b801561199b5780601f106119705761010080835404028352916020019161199b565b820191906000526020600020905b81548152906001019060200180831161197e57829003601f168201915b5050505050905084565b600b6020528060005260406000206000915090508060000160009054906101000a900473ffffffffffffffffffffffffffffffffffffffff16908060010154908060020180546119f490612b7b565b80601f0160208091040260200160405190810160405280929190818152602001828054611a2090612b7b565b8015611a6d5780601f10611a4257610100808354040283529160200191611a6d565b820191906000526020600020905b815481529060010190602001808311611a5057829003601f168201915b505050505090806003018054611a8290612b7b565b80601f0160208091040260200160405190810160405280929190818152602001828054611aae90612b7b565b8015611afb5780601f10611ad057610100808354040283529160200191611afb565b820191906000526020600020905b815481529060010190602001808311611ade57829003601f168201915b5050505050905084565b60008054906101000a900473ffffffffffffffffffffffffffffffffffffffff1673ffffffffffffffffffffffffffffffffffffffff163373ffffffffffffffffffffffffffffffffffffffff1614611b5d57600080fd5b600081118015611b6f57506001548111155b611bae576040517f08c379a0000000000000000000000000000000000000000000000000000000008152600401611ba590612bf8565b60405180910390fd5b60006007811115611bc257611bc161290e565b5b6006600083815260200190815260200160002060080160009054906101000a900460ff166007811115611bf857611bf761290e565b5b14158015611c4e575060066007811115611c1557611c1461290e565b5b6006600083815260200190815260200160002060080160009054906101000a900460ff166007811115611c4b57611c4a61290e565b5b14155b611c8d576040517f08c379a0000000000000000000000000000000000000000000000000000000008152600401611c8490612c8a565b60405180910390fd5b60076006600083815260200190815260200160002060080160006101000a81548160ff02191690836007811115611cc757611cc661290e565b5b021790555050565b6060600060015411611ce057600080fd5b60006007811115611cf457611cf361290e565b5b6006600084815260200190815260200160002060080160009054906101000a900460ff166007811115611d2a57611d2961290e565b5b03611d6c576040518060400160405280601081526020017f4d65646963696e65204f726465726564000000000000000000000000000000008152509050612178565b60016007811115611d8057611d7f61290e565b5b6006600084815260200190815260200160002060080160009054906101000a900460ff166007811115611db657611db561290e565b5b03611df8576040518060400160405280601f81526020017f44656e69656420627920526177204d6174657269616c20537570706c696572008152509050612178565b60026007811115611e0c57611e0b61290e565b5b6006600084815260200190815260200160002060080160009054906101000a900460ff166007811115611e4257611e4161290e565b5b03611e84576040518060400160405280601981526020017f526177204d6174657269616c20537570706c79205374616765000000000000008152509050612178565b60036007811115611e9857611e9761290e565b5b6006600084815260200190815260200160002060080160009054906101000a900460ff166007811115611ece57611ecd61290e565b5b03611f10576040518060400160405280601381526020017f4d616e75666163747572696e67205374616765000000000000000000000000008152509050612178565b60046007811115611f2457611f2361290e565b5b6006600084815260200190815260200160002060080160009054906101000a900460ff166007811115611f5a57611f5961290e565b5b03611f9c576040518060400160405280601281526020017f446973747269627574696f6e20537461676500000000000000000000000000008152509050612178565b60056007811115611fb057611faf61290e565b5b6006600084815260200190815260200160002060080160009054906101000a900460ff166007811115611fe657611fe561290e565b5b03612028576040518060400160405280600c81526020017f52657461696c20537461676500000000000000000000000000000000000000008152509050612178565b6006600781111561203c5761203b61290e565b5b6006600084815260200190815260200160002060080160009054906101000a900460ff1660078111156120725761207161290e565b5b036120b4576040518060400160405280600d81526020017f4d65646963696e6520536f6c64000000000000000000000000000000000000008152509050612178565b6007808111156120c7576120c661290e565b5b6006600084815260200190815260200160002060080160009054906101000a900460ff1660078111156120fd576120fc61290e565b5b0361213f576040518060400160405280601381526020017f4d65646963696e65205465726d696e61746564000000000000000000000000008152509050612178565b6040518060400160405280600d81526020017f556e6b6e6f776e2053746167650000000000000000000000000000000000000081525090505b919050565b60025481565b60076020528060005260406000206000915090508060000160009054906101000a900473ffffffffffffffffffffffffffffffffffffffff16908060010154908060020180546121d290612b7b565b80601f01602080910402602001604051908101604052809291908181526020018280546121fe90612b7b565b801561224b5780601f106122205761010080835404028352916020019161224b565b820191906000526020600020905b81548152906001019060200180831161222e57829003601f168201915b50505050509080600301805461226090612b7b565b80601f016020809104026020016040519081016040528092919081815260200182805461228c90612b7b565b80156122d95780601f106122ae576101008083540402835291602001916122d9565b820191906000526020600020905b8154815290600101906020018083116122bc57829003601f168201915b5050505050905084565b600080600554116122f357600080fd5b600e60008373ffffffffffffffffffffffffffffffffffffffff1673ffffffffffffffffffffffffffffffffffffffff168152602001908152602001600020549050919050565b6000806004541161234a57600080fd5b600c60008373ffffffffffffffffffffffffffffffffffffffff1673ffffffffffffffffffffffffffffffffffffffff168152602001908152602001600020549050919050565b600080600354116123a157600080fd5b600a60008373ffffffffffffffffffffffffffffffffffffffff1673ffffffffffffffffffffffffffffffffffffffff168152602001908152602001600020549050919050565b600080600254116123f857600080fd5b600860008373ffffffffffffffffffffffffffffffffffffffff1673ffffffffffffffffffffffffffffffffffffffff168152602001908152602001600020549050919050565b82805461244b90612b7b565b90600052602060002090601f01602090048101928261246d57600085556124b4565b82601f1061248657805160ff19168380011785556124b4565b828001600101855582156124b4579182015b828111156124b3578251825591602001919060010190612498565b5b5090506124c191906124c5565b5090565b5b808211156124de5760008160009055506001016124c6565b5090565b6000819050919050565b6124f5816124e2565b82525050565b600060208201905061251060008301846124ec565b92915050565b6000604051905090565b600080fd5b600080fd5b600080fd5b600080fd5b6000601f19601f8301169050919050565b7f4e487b7100000000000000000000000000000000000000000000000000000000600052604160045260246000fd5b61257d82612534565b810181811067ffffffffffffffff8211171561259c5761259b612545565b5b80604052505050565b60006125af612516565b90506125bb8282612574565b919050565b600067ffffffffffffffff8211156125db576125da612545565b5b6125e482612534565b9050602081019050919050565b82818337600083830152505050565b600061261361260e846125c0565b6125a5565b90508281526020810184848401111561262f5761262e61252f565b5b61263a8482856125f1565b509392505050565b600082601f8301126126575761265661252a565b5b8135612667848260208601612600565b91505092915050565b60008060006060848603121561268957612688612520565b5b600084013567ffffffffffffffff8111156126a7576126a6612525565b5b6126b386828701612642565b935050602084013567ffffffffffffffff8111156126d4576126d3612525565b5b6126e086828701612642565b925050604084013567ffffffffffffffff81111561270157612700612525565b5b61270d86828701612642565b9150509250925092565b600073ffffffffffffffffffffffffffffffffffffffff82169050919050565b600061274282612717565b9050919050565b61275281612737565b811461275d57600080fd5b50565b60008135905061276f81612749565b92915050565b60006020828403121561278b5761278a612520565b5b600061279984828501612760565b91505092915050565b6000806000606084860312156127bb576127ba612520565b5b60006127c986828701612760565b935050602084013567ffffffffffffffff8111156127ea576127e9612525565b5b6127f686828701612642565b925050604084013567ffffffffffffffff81111561281757612816612525565b5b61282386828701612642565b9150509250925092565b612836816124e2565b811461284157600080fd5b50565b6000813590506128538161282d565b92915050565b60006020828403121561286f5761286e612520565b5b600061287d84828501612844565b91505092915050565b600081519050919050565b600082825260208201905092915050565b60005b838110156128c05780820151818401526020810190506128a5565b838111156128cf576000848401525b50505050565b60006128e082612886565b6128ea8185612891565b93506128fa8185602086016128a2565b61290381612534565b840191505092915050565b7f4e487b7100000000000000000000000000000000000000000000000000000000600052602160045260246000fd5b6008811061294e5761294d61290e565b5b50565b600081905061295f8261293d565b919050565b600061296f82612951565b9050919050565b61297f81612964565b82525050565b60006101408201905061299b600083018d6124ec565b81810360208301526129ad818c6128d5565b905081810360408301526129c1818b6128d5565b905081810360608301526129d5818a6128d5565b90506129e460808301896124ec565b6129f160a08301886124ec565b6129fe60c08301876124ec565b612a0b60e08301866124ec565b612a19610100830185612976565b612a276101208301846124ec565b9b9a5050505050505050505050565b612a3f81612737565b82525050565b6000608082019050612a5a6000830187612a36565b612a6760208301866124ec565b8181036040830152612a7981856128d5565b90508181036060830152612a8d81846128d5565b905095945050505050565b6000602082019050612aad6000830184612a36565b92915050565b60006020820190508181036000830152612acd81846128d5565b905092915050565b7f4e487b7100000000000000000000000000000000000000000000000000000000600052601160045260246000fd5b6000612b0f826124e2565b91507fffffffffffffffffffffffffffffffffffffffffffffffffffffffffffffffff8203612b4157612b40612ad5565b5b600182019050919050565b7f4e487b7100000000000000000000000000000000000000000000000000000000600052602260045260246000fd5b60006002820490506001821680612b9357607f821691505b602082108103612ba657612ba5612b4c565b5b50919050565b7f496e76616c6964206d65646963696e6520494400000000000000000000000000600082015250565b6000612be2601383612891565b9150612bed82612bac565b602082019050919050565b60006020820190508181036000830152612c1181612bd5565b9050919050565b7f43616e6e6f74207465726d696e617465206d65646963696e6520696e20496e6960008201527f74206f7220536f6c642073746167650000000000000000000000000000000000602082015250565b6000612c74602f83612891565b9150612c7f82612c18565b604082019050919050565b60006020820190508181036000830152612ca381612c67565b905091905056fea2646970667358221220a69bafb50658990080a0cedc9d621a67d8b84716bacd4c878066ff358243f3be64736f6c634300080d0033",
        "immutableReferences": {},
        "source": "// SPDX-License-Identifier: MIT\r\npragma solidity ^0.8.0;\r\n\r\ncontract PharmaTrust {\r\n    address public Government;\r\n\r\n    constructor() {\r\n        Government = msg.sender;\r\n    }\r\n\r\n    uint256 public medicineCount = 0;\r\n    uint256 public rmsCount = 0;\r\n    uint256 public  manCount = 0;\r\n    uint256 public distCount = 0;\r\n    uint256 public phCount = 0;\r\n\r\n    enum STAGE {\r\n        Init,\r\n        DeniedByRMS,\r\n        RawMaterialSupply,\r\n        Manufacture,\r\n        Distribution,\r\n        Retail,\r\n        sold,\r\n        Terminate\r\n    }\r\n\r\n    struct medicine {\r\n        uint256 id; \r\n        string name; \r\n        string expDate;\r\n        string description; \r\n        uint256 RMSid; \r\n        uint256 MANid; \r\n        uint256 DISTid; \r\n        uint256 RETid; \r\n        STAGE stage;\r\n        uint256 CounterfeitAttempts;\r\n    }\r\n    mapping(uint256 => medicine) public medAvailable;\r\n\r\n    function showStage(uint256 _medicineID)\r\n        public\r\n        view\r\n        returns (string memory)\r\n    {\r\n        require(medicineCount > 0);\r\n        if (medAvailable[_medicineID].stage == STAGE.Init)\r\n            return \"Medicine Ordered\";\r\n        else if (medAvailable[_medicineID].stage == STAGE.DeniedByRMS)\r\n            return \"Denied by Raw Material Supplier\";    \r\n        else if (medAvailable[_medicineID].stage == STAGE.RawMaterialSupply)\r\n            return \"Raw Material Supply Stage\";\r\n        else if (medAvailable[_medicineID].stage == STAGE.Manufacture)\r\n            return \"Manufacturing Stage\";\r\n        else if (medAvailable[_medicineID].stage == STAGE.Distribution)\r\n            return \"Distribution Stage\";\r\n        else if (medAvailable[_medicineID].stage == STAGE.Retail)\r\n            return \"Retail Stage\";\r\n        else if (medAvailable[_medicineID].stage == STAGE.sold)\r\n            return \"Medicine Sold\";\r\n        else if (medAvailable[_medicineID].stage == STAGE.Terminate)\r\n            return \"Medicine Terminated\";\r\n        return \"Unknown Stage\";\r\n    }\r\n\r\n    struct rawMaterialSupplier {\r\n        address addr;\r\n        uint256 id; \r\n        string name; \r\n        string place; \r\n    }\r\n    mapping(uint256 => rawMaterialSupplier) public RMS;\r\n    mapping(address => uint256) public rmsAddresses;\r\n\r\n    struct manufacturer {\r\n        address addr;\r\n        uint256 id;\r\n        string name;\r\n        string place;\r\n    }\r\n    mapping(uint256 => manufacturer) public MAN;\r\n    mapping(address => uint256) public manAddresses;\r\n\r\n    struct distributor {\r\n        address addr;\r\n        uint256 id;\r\n        string name;\r\n        string place; \r\n    }\r\n    mapping(uint256 => distributor) public DIST;\r\n    mapping(address => uint256) public distAddresses;\r\n\r\n    struct retailer {\r\n        address addr;\r\n        uint256 id; \r\n        string name; \r\n        string place;\r\n    }\r\n    mapping(uint256 => retailer) public RET;\r\n    mapping(address => uint256) public retAddresses;\r\n\r\n    modifier onlyByGov() {\r\n        require(msg.sender == Government);\r\n        _;\r\n    }\r\n    modifier onlyByRET {\r\n        uint256 _id = findRET(msg.sender);\r\n        require(_id > 0);\r\n        _;\r\n    }\r\n\r\n    function addRMS(address _address,string memory _name,string memory _place) public onlyByGov {\r\n        rmsCount++;\r\n        RMS[rmsCount] = rawMaterialSupplier(_address, rmsCount, _name, _place);\r\n        rmsAddresses[_address] = rmsCount;\r\n    }\r\n\r\n    function addManufacturer(address _address,string memory _name,string memory _place) public onlyByGov {\r\n        manCount++;\r\n        MAN[manCount] = manufacturer(_address, manCount, _name, _place);\r\n        manAddresses[_address] = manCount;\r\n    }\r\n\r\n    function addDistributor(address _address,string memory _name,string memory _place) public onlyByGov {\r\n        distCount++;\r\n        DIST[distCount] = distributor(_address, distCount, _name, _place);\r\n        distAddresses[_address] = distCount;\r\n    }\r\n\r\n    function addRetailer(address _address,string memory _name,string memory _place) public onlyByGov {\r\n        phCount++;\r\n        RET[phCount] = retailer(_address, phCount, _name, _place);\r\n        retAddresses[_address] = phCount;\r\n    }\r\n\r\n    //check RMS available in blockchain\r\n    function findRMS(address _address) private view returns (uint256) {\r\n        require(rmsCount > 0);\r\n        return rmsAddresses[_address];\r\n    }\r\n\r\n    function findMAN(address _address) private view returns (uint256) {\r\n        require(manCount > 0);\r\n        return manAddresses[_address];\r\n    }\r\n\r\n    function findDIS(address _address) private view returns (uint256) {\r\n        require(distCount > 0);\r\n        return distAddresses[_address];\r\n    }\r\n\r\n    function findRET(address _address) private view returns (uint256) {\r\n        require(phCount > 0);\r\n        return retAddresses[_address];\r\n    }\r\n\r\n    //to check if rm is available\r\n    function deniedByRMS(uint256 _medicineID) public  {\r\n        require(_medicineID > 0 && _medicineID <= medicineCount);\r\n        uint256 _id = findRMS(msg.sender);\r\n        require(_id > 0);\r\n        require(medAvailable[_medicineID].stage == STAGE.Init);\r\n        // medAvailable[_medicineID].RMSid = _id;\r\n        medAvailable[_medicineID].stage = STAGE.DeniedByRMS;\r\n    }\r\n\r\n    //supply raw materials from RMS supplier to manufacturer\r\n    function RMSsupply(uint256 _medicineID) public {\r\n        require(_medicineID > 0 && _medicineID <= medicineCount);\r\n        uint256 _id = findRMS(msg.sender);\r\n        require(_id > 0);\r\n        require(medAvailable[_medicineID].stage == STAGE.Init || medAvailable[_medicineID].stage == STAGE.DeniedByRMS ); //checking\r\n        medAvailable[_medicineID].RMSid = _id;\r\n        medAvailable[_medicineID].stage = STAGE.RawMaterialSupply;\r\n    }\r\n\r\n    //manufacture medicine\r\n    function Manufacturing(uint256 _medicineID) public {\r\n        require(_medicineID > 0 && _medicineID <= medicineCount);\r\n        uint256 _id = findMAN(msg.sender);\r\n        require(_id > 0);\r\n        require(medAvailable[_medicineID].stage == STAGE.RawMaterialSupply);\r\n        medAvailable[_medicineID].MANid = _id;\r\n        medAvailable[_medicineID].stage = STAGE.Manufacture;\r\n    }\r\n\r\n    // supply medicines from Manufacturer to distributor\r\n    function Distribute(uint256 _medicineID) public {\r\n        require(_medicineID > 0 && _medicineID <= medicineCount);\r\n        uint256 _id = findDIS(msg.sender);\r\n        require(_id > 0);\r\n        require(medAvailable[_medicineID].stage == STAGE.Manufacture);\r\n        medAvailable[_medicineID].DISTid = _id;\r\n        medAvailable[_medicineID].stage = STAGE.Distribution;\r\n    }\r\n\r\n    //supply medicines from distributor to retailer\r\n    function Retail(uint256 _medicineID) public {\r\n        require(_medicineID > 0 && _medicineID <= medicineCount);\r\n        uint256 _id = findRET(msg.sender);\r\n        require(_id > 0);\r\n        require(medAvailable[_medicineID].stage == STAGE.Distribution);\r\n        medAvailable[_medicineID].RETid = _id;\r\n        medAvailable[_medicineID].stage = STAGE.Retail;\r\n    }\r\n\r\n    //sell medicines from retailer to consumer\r\n    function sold(uint256 _medicineID) public {\r\n        require(_medicineID > 0 && _medicineID <= medicineCount);\r\n        uint256 _id = findRET(msg.sender);\r\n        require(_id > 0);\r\n        require(_id == medAvailable[_medicineID].RETid); \r\n        require(medAvailable[_medicineID].stage == STAGE.Retail);\r\n        medAvailable[_medicineID].stage = STAGE.sold;\r\n    }\r\n\r\n    function terminateMedicine(uint256 _medicineID) public onlyByGov {\r\n        require(_medicineID > 0 && _medicineID <= medicineCount, \"Invalid medicine ID\");\r\n        require(medAvailable[_medicineID].stage != STAGE.Init && medAvailable[_medicineID].stage != STAGE.sold, \"Cannot terminate medicine in Init or Sold stage\");\r\n        \r\n        medAvailable[_medicineID].stage = STAGE.Terminate;\r\n    }\r\n\r\n    //to know counterfeit attempts\r\n    function CounterfeitAttempt(uint256 _medicineID) public {\r\n        require(_medicineID > 0 && _medicineID <= medicineCount);\r\n        uint256 m_id = findMAN(msg.sender);\r\n        uint256 r_id = findRMS(msg.sender);\r\n        uint256 d_id = findDIS(msg.sender);\r\n        uint256 re_id = findRET(msg.sender);\r\n        if((m_id>0 && r_id>0 && d_id>0 && re_id>0) == false){\r\n            medAvailable[_medicineID].CounterfeitAttempts++;\r\n        }\r\n        // return medAvailable[_medicineID].CounterfeitAttempts;\r\n    }\r\n\r\n     // add new medicines to the stock\r\n    function addMedicine(string memory _name,string memory _expdate, string memory _description)\r\n        public\r\n        onlyByRET()\r\n    {\r\n        require((rmsCount > 0) && (manCount > 0) && (distCount > 0) && (phCount > 0 ));\r\n        medicineCount++;\r\n        medAvailable[medicineCount] = medicine(\r\n            medicineCount,\r\n            _name,\r\n            _expdate,\r\n            _description,\r\n            0,\r\n            0,\r\n            0,\r\n            0,\r\n            STAGE.Init,\r\n            0\r\n    );\r\n}\r\n}",
        "sourcePath": "C:\\Users\\user\\Desktop\\Pharmatrust\\Final_Year_Project\\contracts\\PharmaTrust.sol",
        "compiler": {
                "name": "solc",
                "version": "0.8.13+commit.abaa5c0e.Emscripten.clang"
        },
        "schemaVersion": "3.4.12",
        "updatedAt": "2024-03-07T13:54:21.074Z",
        "devdoc": {
                "kind": "dev",
                "methods": {},
                "version": 1
        },
        "userdoc": {
                "kind": "user",
                "methods": {},
                "version": 1
        }
}