{
  "contractName": "PharmaTrust",
  "abi": [
    {
      "inputs": [],
      "stateMutability": "nonpayable",
      "type": "constructor"
    },
    {
      "inputs": [
        {
          "internalType": "uint256",
          "name": "",
          "type": "uint256"
        }
      ],
      "name": "DIST",
      "outputs": [
        {
          "internalType": "address",
          "name": "addr",
          "type": "address"
        },
        {
          "internalType": "uint256",
          "name": "id",
          "type": "uint256"
        },
        {
          "internalType": "string",
          "name": "name",
          "type": "string"
        },
        {
          "internalType": "string",
          "name": "place",
          "type": "string"
        }
      ],
      "stateMutability": "view",
      "type": "function"
    },
    {
      "inputs": [],
      "name": "Government",
      "outputs": [
        {
          "internalType": "address",
          "name": "",
          "type": "address"
        }
      ],
      "stateMutability": "view",
      "type": "function"
    },
    {
      "inputs": [
        {
          "internalType": "uint256",
          "name": "",
          "type": "uint256"
        }
      ],
      "name": "MAN",
      "outputs": [
        {
          "internalType": "address",
          "name": "addr",
          "type": "address"
        },
        {
          "internalType": "uint256",
          "name": "id",
          "type": "uint256"
        },
        {
          "internalType": "string",
          "name": "name",
          "type": "string"
        },
        {
          "internalType": "string",
          "name": "place",
          "type": "string"
        }
      ],
      "stateMutability": "view",
      "type": "function"
    },
    {
      "inputs": [
        {
          "internalType": "uint256",
          "name": "",
          "type": "uint256"
        }
      ],
      "name": "RET",
      "outputs": [
        {
          "internalType": "address",
          "name": "addr",
          "type": "address"
        },
        {
          "internalType": "uint256",
          "name": "id",
          "type": "uint256"
        },
        {
          "internalType": "string",
          "name": "name",
          "type": "string"
        },
        {
          "internalType": "string",
          "name": "place",
          "type": "string"
        }
      ],
      "stateMutability": "view",
      "type": "function"
    },
    {
      "inputs": [
        {
          "internalType": "uint256",
          "name": "",
          "type": "uint256"
        }
      ],
      "name": "RMS",
      "outputs": [
        {
          "internalType": "address",
          "name": "addr",
          "type": "address"
        },
        {
          "internalType": "uint256",
          "name": "id",
          "type": "uint256"
        },
        {
          "internalType": "string",
          "name": "name",
          "type": "string"
        },
        {
          "internalType": "string",
          "name": "place",
          "type": "string"
        }
      ],
      "stateMutability": "view",
      "type": "function"
    },
    {
      "inputs": [
        {
          "internalType": "address",
          "name": "",
          "type": "address"
        }
      ],
      "name": "distAddresses",
      "outputs": [
        {
          "internalType": "uint256",
          "name": "",
          "type": "uint256"
        }
      ],
      "stateMutability": "view",
      "type": "function"
    },
    {
      "inputs": [],
      "name": "distCount",
      "outputs": [
        {
          "internalType": "uint256",
          "name": "",
          "type": "uint256"
        }
      ],
      "stateMutability": "view",
      "type": "function"
    },
    {
      "inputs": [
        {
          "internalType": "address",
          "name": "",
          "type": "address"
        }
      ],
      "name": "manAddresses",
      "outputs": [
        {
          "internalType": "uint256",
          "name": "",
          "type": "uint256"
        }
      ],
      "stateMutability": "view",
      "type": "function"
    },
    {
      "inputs": [],
      "name": "manCount",
      "outputs": [
        {
          "internalType": "uint256",
          "name": "",
          "type": "uint256"
        }
      ],
      "stateMutability": "view",
      "type": "function"
    },
    {
      "inputs": [
        {
          "internalType": "uint256",
          "name": "",
          "type": "uint256"
        }
      ],
      "name": "medAvailable",
      "outputs": [
        {
          "internalType": "uint256",
          "name": "id",
          "type": "uint256"
        },
        {
          "internalType": "string",
          "name": "name",
          "type": "string"
        },
        {
          "internalType": "string",
          "name": "expDate",
          "type": "string"
        },
        {
          "internalType": "string",
          "name": "description",
          "type": "string"
        },
        {
          "internalType": "uint256",
          "name": "RMSid",
          "type": "uint256"
        },
        {
          "internalType": "uint256",
          "name": "MANid",
          "type": "uint256"
        },
        {
          "internalType": "uint256",
          "name": "DISTid",
          "type": "uint256"
        },
        {
          "internalType": "uint256",
          "name": "RETid",
          "type": "uint256"
        },
        {
          "internalType": "enum PharmaTrust.STAGE",
          "name": "stage",
          "type": "uint8"
        },
        {
          "internalType": "uint256",
          "name": "CounterfeitAttempts",
          "type": "uint256"
        }
      ],
      "stateMutability": "view",
      "type": "function"
    },
    {
      "inputs": [],
      "name": "medicineCount",
      "outputs": [
        {
          "internalType": "uint256",
          "name": "",
          "type": "uint256"
        }
      ],
      "stateMutability": "view",
      "type": "function"
    },
    {
      "inputs": [],
      "name": "phCount",
      "outputs": [
        {
          "internalType": "uint256",
          "name": "",
          "type": "uint256"
        }
      ],
      "stateMutability": "view",
      "type": "function"
    },
    {
      "inputs": [
        {
          "internalType": "address",
          "name": "",
          "type": "address"
        }
      ],
      "name": "retAddresses",
      "outputs": [
        {
          "internalType": "uint256",
          "name": "",
          "type": "uint256"
        }
      ],
      "stateMutability": "view",
      "type": "function"
    },
    {
      "inputs": [
        {
          "internalType": "address",
          "name": "",
          "type": "address"
        }
      ],
      "name": "rmsAddresses",
      "outputs": [
        {
          "internalType": "uint256",
          "name": "",
          "type": "uint256"
        }
      ],
      "stateMutability": "view",
      "type": "function"
    },
    {
      "inputs": [],
      "name": "rmsCount",
      "outputs": [
        {
          "internalType": "uint256",
          "name": "",
          "type": "uint256"
        }
      ],
      "stateMutability": "view",
      "type": "function"
    },
    {
      "inputs": [
        {
          "internalType": "uint256",
          "name": "_medicineID",
          "type": "uint256"
        }
      ],
      "name": "showStage",
      "outputs": [
        {
          "internalType": "string",
          "name": "",
          "type": "string"
        }
      ],
      "stateMutability": "view",
      "type": "function"
    },
    {
      "inputs": [
        {
          "internalType": "address",
          "name": "_address",
          "type": "address"
        },
        {
          "internalType": "string",
          "name": "_name",
          "type": "string"
        },
        {
          "internalType": "string",
          "name": "_place",
          "type": "string"
        }
      ],
      "name": "addRMS",
      "outputs": [],
      "stateMutability": "nonpayable",
      "type": "function"
    },
    {
      "inputs": [
        {
          "internalType": "address",
          "name": "_address",
          "type": "address"
        },
        {
          "internalType": "string",
          "name": "_name",
          "type": "string"
        },
        {
          "internalType": "string",
          "name": "_place",
          "type": "string"
        }
      ],
      "name": "addManufacturer",
      "outputs": [],
      "stateMutability": "nonpayable",
      "type": "function"
    },
    {
      "inputs": [
        {
          "internalType": "address",
          "name": "_address",
          "type": "address"
        },
        {
          "internalType": "string",
          "name": "_name",
          "type": "string"
        },
        {
          "internalType": "string",
          "name": "_place",
          "type": "string"
        }
      ],
      "name": "addDistributor",
      "outputs": [],
      "stateMutability": "nonpayable",
      "type": "function"
    },
    {
      "inputs": [
        {
          "internalType": "address",
          "name": "_address",
          "type": "address"
        },
        {
          "internalType": "string",
          "name": "_name",
          "type": "string"
        },
        {
          "internalType": "string",
          "name": "_place",
          "type": "string"
        }
      ],
      "name": "addRetailer",
      "outputs": [],
      "stateMutability": "nonpayable",
      "type": "function"
    },
    {
      "inputs": [
        {
          "internalType": "uint256",
          "name": "_medicineID",
          "type": "uint256"
        }
      ],
      "name": "deniedByRMS",
      "outputs": [],
      "stateMutability": "nonpayable",
      "type": "function"
    },
    {
      "inputs": [
        {
          "internalType": "uint256",
          "name": "_medicineID",
          "type": "uint256"
        }
      ],
      "name": "RMSsupply",
      "outputs": [],
      "stateMutability": "nonpayable",
      "type": "function"
    },
    {
      "inputs": [
        {
          "internalType": "uint256",
          "name": "_medicineID",
          "type": "uint256"
        }
      ],
      "name": "Manufacturing",
      "outputs": [],
      "stateMutability": "nonpayable",
      "type": "function"
    },
    {
      "inputs": [
        {
          "internalType": "uint256",
          "name": "_medicineID",
          "type": "uint256"
        }
      ],
      "name": "Distribute",
      "outputs": [],
      "stateMutability": "nonpayable",
      "type": "function"
    },
    {
      "inputs": [
        {
          "internalType": "uint256",
          "name": "_medicineID",
          "type": "uint256"
        }
      ],
      "name": "Retail",
      "outputs": [],
      "stateMutability": "nonpayable",
      "type": "function"
    },
    {
      "inputs": [
        {
          "internalType": "uint256",
          "name": "_medicineID",
          "type": "uint256"
        }
      ],
      "name": "sold",
      "outputs": [],
      "stateMutability": "nonpayable",
      "type": "function"
    },
    {
      "inputs": [
        {
          "internalType": "uint256",
          "name": "_medicineID",
          "type": "uint256"
        }
      ],
      "name": "terminateMedicine",
      "outputs": [],
      "stateMutability": "nonpayable",
      "type": "function"
    },
    {
      "inputs": [
        {
          "internalType": "uint256",
          "name": "_medicineID",
          "type": "uint256"
        }
      ],
      "name": "CounterfeitAttempt",
      "outputs": [],
      "stateMutability": "nonpayable",
      "type": "function"
    },
    {
      "inputs": [
        {
          "internalType": "string",
          "name": "_name",
          "type": "string"
        },
        {
          "internalType": "string",
          "name": "_expdate",
          "type": "string"
        },
        {
          "internalType": "string",
          "name": "_description",
          "type": "string"
        }
      ],
      "name": "addMedicine",
      "outputs": [],
      "stateMutability": "nonpayable",
      "type": "function"
    }
  ],
  "bytecode": "0x60806040526000600155600060025560006003556000600455600060055534801561002957600080fd5b50336000806101000a81548173ffffffffffffffffffffffffffffffffffffffff021916908373ffffffffffffffffffffffffffffffffffffffff160217905550612e65806100796000396000f3fe608060405234801561001057600080fd5b50600436106101cf5760003560e01c806371adce6211610104578063a48d335a116100a2578063d84053bb11610071578063d84053bb1461054c578063e101a2e014610568578063e466385314610598578063eef5cb40146105b6576101cf565b8063a48d335a1461049a578063c183d3c5146104b6578063cc403069146104e6578063d42510b614610519576101cf565b8063808bccb6116100de578063808bccb61461042a578063857ddb041461044657806386c18275146104625780639c03facb1461047e576101cf565b806371adce62146103d25780637b855ae4146103ee5780637c25f2601461040c576101cf565b80633d753a1c116101715780634dafd4901161014b5780634dafd490146103495780634def474a1461036757806359bf286f146103835780636a992c9f146103b6576101cf565b80633d753a1c146102df5780634582de46146102fb5780634d3fdae91461032b576101cf565b8063232a4094116101ad578063232a40941461023e5780632a4af4401461026e5780632b70b08d1461028a5780633c1820c2146102a6576101cf565b806302e0d9fa146101d4578063030c790f146101f257806307bd83c51461020e575b600080fd5b6101dc6105e9565b6040516101e9919061240b565b60405180910390f35b61020c60048036038101906102079190612580565b6105ef565b005b61022860048036038101906102239190612685565b610788565b604051610235919061240b565b60405180910390f35b61025860048036038101906102539190612685565b6107a0565b604051610265919061240b565b60405180910390f35b610288600480360381019061028391906126b2565b6107b8565b005b6102a4600480360381019061029f91906126b2565b610941565b005b6102c060048036038101906102bb9190612769565b610aca565b6040516102d69a9998979695949392919061288c565b60405180910390f35b6102f960048036038101906102f49190612769565b610cc3565b005b61031560048036038101906103109190612685565b610daa565b604051610322919061240b565b60405180910390f35b610333610dc2565b604051610340919061240b565b60405180910390f35b610351610dc8565b60405161035e919061240b565b60405180910390f35b610381600480360381019061037c9190612769565b610dce565b005b61039d60048036038101906103989190612769565b610eb5565b6040516103ad949392919061294c565b60405180910390f35b6103d060048036038101906103cb91906126b2565b611015565b005b6103ec60048036038101906103e79190612769565b61119e565b005b6103f6611254565b604051610403919061240b565b60405180910390f35b61041461125a565b604051610421919061299f565b60405180910390f35b610444600480360381019061043f9190612769565b61127e565b005b610460600480360381019061045b91906126b2565b61134a565b005b61047c60048036038101906104779190612769565b6114d3565b005b61049860048036038101906104939190612769565b61160c565b005b6104b460048036038101906104af9190612769565b6116f9565b005b6104d060048036038101906104cb9190612685565b6117e0565b6040516104dd919061240b565b60405180910390f35b61050060048036038101906104fb9190612769565b6117f8565b604051610510949392919061294c565b60405180910390f35b610533600480360381019061052e9190612769565b611958565b604051610543949392919061294c565b60405180910390f35b61056660048036038101906105619190612769565b611ab8565b005b610582600480360381019061057d9190612769565b611c82565b60405161058f91906129ba565b60405180910390f35b6105a0612130565b6040516105ad919061240b565b60405180910390f35b6105d060048036038101906105cb9190612769565b612136565b6040516105e0949392919061294c565b60405180910390f35b60055481565b60006105fa33612296565b90506000811161060957600080fd5b600060025411801561061d57506000600354115b801561062b57506000600454115b801561063957506000600554115b61064257600080fd5b6001600081548092919061065590612a0b565b9190505550604051806101400160405280600154815260200185815260200184815260200183815260200160008152602001600081526020016000815260200160008152602001600060078111156106b0576106af612815565b5b815260200160008152506006600060015481526020019081526020016000206000820151816000015560208201518160010190816106ee9190612c5f565b5060408201518160020190816107049190612c5f565b50606082015181600301908161071a9190612c5f565b506080820151816004015560a0820151816005015560c0820151816006015560e082015181600701556101008201518160080160006101000a81548160ff0219169083600781111561076f5761076e612815565b5b0217905550610120820151816009015590505050505050565b60086020528060005260406000206000915090505481565b600c6020528060005260406000206000915090505481565b60008054906101000a900473ffffffffffffffffffffffffffffffffffffffff1673ffffffffffffffffffffffffffffffffffffffff163373ffffffffffffffffffffffffffffffffffffffff161461081057600080fd5b6004600081548092919061082390612a0b565b919050555060405180608001604052808473ffffffffffffffffffffffffffffffffffffffff168152602001600454815260200183815260200182815250600b6000600454815260200190815260200160002060008201518160000160006101000a81548173ffffffffffffffffffffffffffffffffffffffff021916908373ffffffffffffffffffffffffffffffffffffffff1602179055506020820151816001015560408201518160020190816108dc9190612c5f565b5060608201518160030190816108f29190612c5f565b50905050600454600c60008573ffffffffffffffffffffffffffffffffffffffff1673ffffffffffffffffffffffffffffffffffffffff16815260200190815260200160002081905550505050565b60008054906101000a900473ffffffffffffffffffffffffffffffffffffffff1673ffffffffffffffffffffffffffffffffffffffff163373ffffffffffffffffffffffffffffffffffffffff161461099957600080fd5b600260008154809291906109ac90612a0b565b919050555060405180608001604052808473ffffffffffffffffffffffffffffffffffffffff16815260200160025481526020018381526020018281525060076000600254815260200190815260200160002060008201518160000160006101000a81548173ffffffffffffffffffffffffffffffffffffffff021916908373ffffffffffffffffffffffffffffffffffffffff160217905550602082015181600101556040820151816002019081610a659190612c5f565b506060820151816003019081610a7b9190612c5f565b50905050600254600860008573ffffffffffffffffffffffffffffffffffffffff1673ffffffffffffffffffffffffffffffffffffffff16815260200190815260200160002081905550505050565b6006602052806000526040600020600091509050806000015490806001018054610af390612a82565b80601f0160208091040260200160405190810160405280929190818152602001828054610b1f90612a82565b8015610b6c5780601f10610b4157610100808354040283529160200191610b6c565b820191906000526020600020905b815481529060010190602001808311610b4f57829003601f168201915b505050505090806002018054610b8190612a82565b80601f0160208091040260200160405190810160405280929190818152602001828054610bad90612a82565b8015610bfa5780601f10610bcf57610100808354040283529160200191610bfa565b820191906000526020600020905b815481529060010190602001808311610bdd57829003601f168201915b505050505090806003018054610c0f90612a82565b80601f0160208091040260200160405190810160405280929190818152602001828054610c3b90612a82565b8015610c885780601f10610c5d57610100808354040283529160200191610c88565b820191906000526020600020905b815481529060010190602001808311610c6b57829003601f168201915b5050505050908060040154908060050154908060060154908060070154908060080160009054906101000a900460ff1690806009015490508a565b600081118015610cd557506001548111155b610cde57600080fd5b6000610ce933612296565b905060008111610cf857600080fd5b60046007811115610d0c57610d0b612815565b5b6006600084815260200190815260200160002060080160009054906101000a900460ff166007811115610d4257610d41612815565b5b14610d4c57600080fd5b80600660008481526020019081526020016000206007018190555060056006600084815260200190815260200160002060080160006101000a81548160ff02191690836007811115610da157610da0612815565b5b02179055505050565b600a6020528060005260406000206000915090505481565b60045481565b60015481565b600081118015610de057506001548111155b610de957600080fd5b6000610df4336122ed565b905060008111610e0357600080fd5b60036007811115610e1757610e16612815565b5b6006600084815260200190815260200160002060080160009054906101000a900460ff166007811115610e4d57610e4c612815565b5b14610e5757600080fd5b80600660008481526020019081526020016000206006018190555060046006600084815260200190815260200160002060080160006101000a81548160ff02191690836007811115610eac57610eab612815565b5b02179055505050565b600d6020528060005260406000206000915090508060000160009054906101000a900473ffffffffffffffffffffffffffffffffffffffff1690806001015490806002018054610f0490612a82565b80601f0160208091040260200160405190810160405280929190818152602001828054610f3090612a82565b8015610f7d5780601f10610f5257610100808354040283529160200191610f7d565b820191906000526020600020905b815481529060010190602001808311610f6057829003601f168201915b505050505090806003018054610f9290612a82565b80601f0160208091040260200160405190810160405280929190818152602001828054610fbe90612a82565b801561100b5780601f10610fe05761010080835404028352916020019161100b565b820191906000526020600020905b815481529060010190602001808311610fee57829003601f168201915b5050505050905084565b60008054906101000a900473ffffffffffffffffffffffffffffffffffffffff1673ffffffffffffffffffffffffffffffffffffffff163373ffffffffffffffffffffffffffffffffffffffff161461106d57600080fd5b6003600081548092919061108090612a0b565b919050555060405180608001604052808473ffffffffffffffffffffffffffffffffffffffff16815260200160035481526020018381526020018281525060096000600354815260200190815260200160002060008201518160000160006101000a81548173ffffffffffffffffffffffffffffffffffffffff021916908373ffffffffffffffffffffffffffffffffffffffff1602179055506020820151816001015560408201518160020190816111399190612c5f565b50606082015181600301908161114f9190612c5f565b50905050600354600a60008573ffffffffffffffffffffffffffffffffffffffff1673ffffffffffffffffffffffffffffffffffffffff16815260200190815260200160002081905550505050565b6000811180156111b057506001548111155b6111b957600080fd5b60006111c433612344565b905060006111d13361239b565b905060006111de336122ed565b905060006111eb33612296565b9050600015156000851180156112015750600084115b801561120d5750600083115b80156112195750600082115b15150361124d5760066000868152602001908152602001600020600901600081548092919061124790612a0b565b91905055505b5050505050565b60035481565b60008054906101000a900473ffffffffffffffffffffffffffffffffffffffff1681565b60008111801561129057506001548111155b61129957600080fd5b60006112a43361239b565b9050600081116112b357600080fd5b600060078111156112c7576112c6612815565b5b6006600084815260200190815260200160002060080160009054906101000a900460ff1660078111156112fd576112fc612815565b5b1461130757600080fd5b60016006600084815260200190815260200160002060080160006101000a81548160ff0219169083600781111561134157611340612815565b5b02179055505050565b60008054906101000a900473ffffffffffffffffffffffffffffffffffffffff1673ffffffffffffffffffffffffffffffffffffffff163373ffffffffffffffffffffffffffffffffffffffff16146113a257600080fd5b600560008154809291906113b590612a0b565b919050555060405180608001604052808473ffffffffffffffffffffffffffffffffffffffff168152602001600554815260200183815260200182815250600d6000600554815260200190815260200160002060008201518160000160006101000a81548173ffffffffffffffffffffffffffffffffffffffff021916908373ffffffffffffffffffffffffffffffffffffffff16021790555060208201518160010155604082015181600201908161146e9190612c5f565b5060608201518160030190816114849190612c5f565b50905050600554600e60008573ffffffffffffffffffffffffffffffffffffffff1673ffffffffffffffffffffffffffffffffffffffff16815260200190815260200160002081905550505050565b6000811180156114e557506001548111155b6114ee57600080fd5b60006114f93361239b565b90506000811161150857600080fd5b6000600781111561151c5761151b612815565b5b6006600084815260200190815260200160002060080160009054906101000a900460ff16600781111561155257611551612815565b5b14806115a557506001600781111561156d5761156c612815565b5b6006600084815260200190815260200160002060080160009054906101000a900460ff1660078111156115a3576115a2612815565b5b145b6115ae57600080fd5b80600660008481526020019081526020016000206004018190555060026006600084815260200190815260200160002060080160006101000a81548160ff0219169083600781111561160357611602612815565b5b02179055505050565b60008111801561161e57506001548111155b61162757600080fd5b600061163233612296565b90506000811161164157600080fd5b6006600083815260200190815260200160002060070154811461166357600080fd5b6005600781111561167757611676612815565b5b6006600084815260200190815260200160002060080160009054906101000a900460ff1660078111156116ad576116ac612815565b5b146116b757600080fd5b600680600084815260200190815260200160002060080160006101000a81548160ff021916908360078111156116f0576116ef612815565b5b02179055505050565b60008111801561170b57506001548111155b61171457600080fd5b600061171f33612344565b90506000811161172e57600080fd5b6002600781111561174257611741612815565b5b6006600084815260200190815260200160002060080160009054906101000a900460ff16600781111561177857611777612815565b5b1461178257600080fd5b80600660008481526020019081526020016000206005018190555060036006600084815260200190815260200160002060080160006101000a81548160ff021916908360078111156117d7576117d6612815565b5b02179055505050565b600e6020528060005260406000206000915090505481565b60096020528060005260406000206000915090508060000160009054906101000a900473ffffffffffffffffffffffffffffffffffffffff169080600101549080600201805461184790612a82565b80601f016020809104026020016040519081016040528092919081815260200182805461187390612a82565b80156118c05780601f10611895576101008083540402835291602001916118c0565b820191906000526020600020905b8154815290600101906020018083116118a357829003601f168201915b5050505050908060030180546118d590612a82565b80601f016020809104026020016040519081016040528092919081815260200182805461190190612a82565b801561194e5780601f106119235761010080835404028352916020019161194e565b820191906000526020600020905b81548152906001019060200180831161193157829003601f168201915b5050505050905084565b600b6020528060005260406000206000915090508060000160009054906101000a900473ffffffffffffffffffffffffffffffffffffffff16908060010154908060020180546119a790612a82565b80601f01602080910402602001604051908101604052809291908181526020018280546119d390612a82565b8015611a205780601f106119f557610100808354040283529160200191611a20565b820191906000526020600020905b815481529060010190602001808311611a0357829003601f168201915b505050505090806003018054611a3590612a82565b80601f0160208091040260200160405190810160405280929190818152602001828054611a6190612a82565b8015611aae5780601f10611a8357610100808354040283529160200191611aae565b820191906000526020600020905b815481529060010190602001808311611a9157829003601f168201915b5050505050905084565b60008054906101000a900473ffffffffffffffffffffffffffffffffffffffff1673ffffffffffffffffffffffffffffffffffffffff163373ffffffffffffffffffffffffffffffffffffffff1614611b1057600080fd5b600081118015611b2257506001548111155b611b61576040517f08c379a0000000000000000000000000000000000000000000000000000000008152600401611b5890612d7d565b60405180910390fd5b60006007811115611b7557611b74612815565b5b6006600083815260200190815260200160002060080160009054906101000a900460ff166007811115611bab57611baa612815565b5b14158015611c01575060066007811115611bc857611bc7612815565b5b6006600083815260200190815260200160002060080160009054906101000a900460ff166007811115611bfe57611bfd612815565b5b14155b611c40576040517f08c379a0000000000000000000000000000000000000000000000000000000008152600401611c3790612e0f565b60405180910390fd5b60076006600083815260200190815260200160002060080160006101000a81548160ff02191690836007811115611c7a57611c79612815565b5b021790555050565b6060600060015411611c9357600080fd5b60006007811115611ca757611ca6612815565b5b6006600084815260200190815260200160002060080160009054906101000a900460ff166007811115611cdd57611cdc612815565b5b03611d1f576040518060400160405280601081526020017f4d65646963696e65204f72646572656400000000000000000000000000000000815250905061212b565b60016007811115611d3357611d32612815565b5b6006600084815260200190815260200160002060080160009054906101000a900460ff166007811115611d6957611d68612815565b5b03611dab576040518060400160405280601f81526020017f44656e69656420627920526177204d6174657269616c20537570706c69657200815250905061212b565b60026007811115611dbf57611dbe612815565b5b6006600084815260200190815260200160002060080160009054906101000a900460ff166007811115611df557611df4612815565b5b03611e37576040518060400160405280601981526020017f526177204d6174657269616c20537570706c7920537461676500000000000000815250905061212b565b60036007811115611e4b57611e4a612815565b5b6006600084815260200190815260200160002060080160009054906101000a900460ff166007811115611e8157611e80612815565b5b03611ec3576040518060400160405280601381526020017f4d616e75666163747572696e6720537461676500000000000000000000000000815250905061212b565b60046007811115611ed757611ed6612815565b5b6006600084815260200190815260200160002060080160009054906101000a900460ff166007811115611f0d57611f0c612815565b5b03611f4f576040518060400160405280601281526020017f446973747269627574696f6e2053746167650000000000000000000000000000815250905061212b565b60056007811115611f6357611f62612815565b5b6006600084815260200190815260200160002060080160009054906101000a900460ff166007811115611f9957611f98612815565b5b03611fdb576040518060400160405280600c81526020017f52657461696c2053746167650000000000000000000000000000000000000000815250905061212b565b60066007811115611fef57611fee612815565b5b6006600084815260200190815260200160002060080160009054906101000a900460ff16600781111561202557612024612815565b5b03612067576040518060400160405280600d81526020017f4d65646963696e6520536f6c6400000000000000000000000000000000000000815250905061212b565b60078081111561207a57612079612815565b5b6006600084815260200190815260200160002060080160009054906101000a900460ff1660078111156120b0576120af612815565b5b036120f2576040518060400160405280601381526020017f4d65646963696e65205465726d696e6174656400000000000000000000000000815250905061212b565b6040518060400160405280600d81526020017f556e6b6e6f776e2053746167650000000000000000000000000000000000000081525090505b919050565b60025481565b60076020528060005260406000206000915090508060000160009054906101000a900473ffffffffffffffffffffffffffffffffffffffff169080600101549080600201805461218590612a82565b80601f01602080910402602001604051908101604052809291908181526020018280546121b190612a82565b80156121fe5780601f106121d3576101008083540402835291602001916121fe565b820191906000526020600020905b8154815290600101906020018083116121e157829003601f168201915b50505050509080600301805461221390612a82565b80601f016020809104026020016040519081016040528092919081815260200182805461223f90612a82565b801561228c5780601f106122615761010080835404028352916020019161228c565b820191906000526020600020905b81548152906001019060200180831161226f57829003601f168201915b5050505050905084565b600080600554116122a657600080fd5b600e60008373ffffffffffffffffffffffffffffffffffffffff1673ffffffffffffffffffffffffffffffffffffffff168152602001908152602001600020549050919050565b600080600454116122fd57600080fd5b600c60008373ffffffffffffffffffffffffffffffffffffffff1673ffffffffffffffffffffffffffffffffffffffff168152602001908152602001600020549050919050565b6000806003541161235457600080fd5b600a60008373ffffffffffffffffffffffffffffffffffffffff1673ffffffffffffffffffffffffffffffffffffffff168152602001908152602001600020549050919050565b600080600254116123ab57600080fd5b600860008373ffffffffffffffffffffffffffffffffffffffff1673ffffffffffffffffffffffffffffffffffffffff168152602001908152602001600020549050919050565b6000819050919050565b612405816123f2565b82525050565b600060208201905061242060008301846123fc565b92915050565b6000604051905090565b600080fd5b600080fd5b600080fd5b600080fd5b6000601f19601f8301169050919050565b7f4e487b7100000000000000000000000000000000000000000000000000000000600052604160045260246000fd5b61248d82612444565b810181811067ffffffffffffffff821117156124ac576124ab612455565b5b80604052505050565b60006124bf612426565b90506124cb8282612484565b919050565b600067ffffffffffffffff8211156124eb576124ea612455565b5b6124f482612444565b9050602081019050919050565b82818337600083830152505050565b600061252361251e846124d0565b6124b5565b90508281526020810184848401111561253f5761253e61243f565b5b61254a848285612501565b509392505050565b600082601f8301126125675761256661243a565b5b8135612577848260208601612510565b91505092915050565b60008060006060848603121561259957612598612430565b5b600084013567ffffffffffffffff8111156125b7576125b6612435565b5b6125c386828701612552565b935050602084013567ffffffffffffffff8111156125e4576125e3612435565b5b6125f086828701612552565b925050604084013567ffffffffffffffff81111561261157612610612435565b5b61261d86828701612552565b9150509250925092565b600073ffffffffffffffffffffffffffffffffffffffff82169050919050565b600061265282612627565b9050919050565b61266281612647565b811461266d57600080fd5b50565b60008135905061267f81612659565b92915050565b60006020828403121561269b5761269a612430565b5b60006126a984828501612670565b91505092915050565b6000806000606084860312156126cb576126ca612430565b5b60006126d986828701612670565b935050602084013567ffffffffffffffff8111156126fa576126f9612435565b5b61270686828701612552565b925050604084013567ffffffffffffffff81111561272757612726612435565b5b61273386828701612552565b9150509250925092565b612746816123f2565b811461275157600080fd5b50565b6000813590506127638161273d565b92915050565b60006020828403121561277f5761277e612430565b5b600061278d84828501612754565b91505092915050565b600081519050919050565b600082825260208201905092915050565b60005b838110156127d05780820151818401526020810190506127b5565b60008484015250505050565b60006127e782612796565b6127f181856127a1565b93506128018185602086016127b2565b61280a81612444565b840191505092915050565b7f4e487b7100000000000000000000000000000000000000000000000000000000600052602160045260246000fd5b6008811061285557612854612815565b5b50565b600081905061286682612844565b919050565b600061287682612858565b9050919050565b6128868161286b565b82525050565b6000610140820190506128a2600083018d6123fc565b81810360208301526128b4818c6127dc565b905081810360408301526128c8818b6127dc565b905081810360608301526128dc818a6127dc565b90506128eb60808301896123fc565b6128f860a08301886123fc565b61290560c08301876123fc565b61291260e08301866123fc565b61292061010083018561287d565b61292e6101208301846123fc565b9b9a5050505050505050505050565b61294681612647565b82525050565b6000608082019050612961600083018761293d565b61296e60208301866123fc565b818103604083015261298081856127dc565b9050818103606083015261299481846127dc565b905095945050505050565b60006020820190506129b4600083018461293d565b92915050565b600060208201905081810360008301526129d481846127dc565b905092915050565b7f4e487b7100000000000000000000000000000000000000000000000000000000600052601160045260246000fd5b6000612a16826123f2565b91507fffffffffffffffffffffffffffffffffffffffffffffffffffffffffffffffff8203612a4857612a476129dc565b5b600182019050919050565b7f4e487b7100000000000000000000000000000000000000000000000000000000600052602260045260246000fd5b60006002820490506001821680612a9a57607f821691505b602082108103612aad57612aac612a53565b5b50919050565b60008190508160005260206000209050919050565b60006020601f8301049050919050565b600082821b905092915050565b600060088302612b157fffffffffffffffffffffffffffffffffffffffffffffffffffffffffffffffff82612ad8565b612b1f8683612ad8565b95508019841693508086168417925050509392505050565b6000819050919050565b6000612b5c612b57612b52846123f2565b612b37565b6123f2565b9050919050565b6000819050919050565b612b7683612b41565b612b8a612b8282612b63565b848454612ae5565b825550505050565b600090565b612b9f612b92565b612baa818484612b6d565b505050565b5b81811015612bce57612bc3600082612b97565b600181019050612bb0565b5050565b601f821115612c1357612be481612ab3565b612bed84612ac8565b81016020851015612bfc578190505b612c10612c0885612ac8565b830182612baf565b50505b505050565b600082821c905092915050565b6000612c3660001984600802612c18565b1980831691505092915050565b6000612c4f8383612c25565b9150826002028217905092915050565b612c6882612796565b67ffffffffffffffff811115612c8157612c80612455565b5b612c8b8254612a82565b612c96828285612bd2565b600060209050601f831160018114612cc95760008415612cb7578287015190505b612cc18582612c43565b865550612d29565b601f198416612cd786612ab3565b60005b82811015612cff57848901518255600182019150602085019450602081019050612cda565b86831015612d1c5784890151612d18601f891682612c25565b8355505b6001600288020188555050505b505050505050565b7f496e76616c6964206d65646963696e6520494400000000000000000000000000600082015250565b6000612d676013836127a1565b9150612d7282612d31565b602082019050919050565b60006020820190508181036000830152612d9681612d5a565b9050919050565b7f43616e6e6f74207465726d696e617465206d65646963696e6520696e20496e6960008201527f74206f7220536f6c642073746167650000000000000000000000000000000000602082015250565b6000612df9602f836127a1565b9150612e0482612d9d565b604082019050919050565b60006020820190508181036000830152612e2881612dec565b905091905056fea2646970667358221220d1ebb930bdf74931831f2d5dfd448f420b502087c0b3cb852a490792d23b135c64736f6c63430008120033",
  "immutableReferences": {},
  "source": "// SPDX-License-Identifier: MIT\r\npragma solidity ^0.8.0;\r\n\r\ncontract PharmaTrust {\r\n    address public Government;\r\n\r\n    constructor() {\r\n        Government = msg.sender;\r\n    }\r\n\r\n    uint256 public medicineCount = 0;\r\n    uint256 public rmsCount = 0;\r\n    uint256 public  manCount = 0;\r\n    uint256 public distCount = 0;\r\n    uint256 public phCount = 0;\r\n\r\n    enum STAGE {\r\n        Init,\r\n        DeniedByRMS,\r\n        RawMaterialSupply,\r\n        Manufacture,\r\n        Distribution,\r\n        Retail,\r\n        sold,\r\n        Terminate\r\n    }\r\n\r\n    struct medicine {\r\n        uint256 id; \r\n        string name; \r\n        string expDate;\r\n        string description; \r\n        uint256 RMSid; \r\n        uint256 MANid; \r\n        uint256 DISTid; \r\n        uint256 RETid; \r\n        STAGE stage;\r\n        uint256 CounterfeitAttempts;\r\n    }\r\n    mapping(uint256 => medicine) public medAvailable;\r\n\r\n    function showStage(uint256 _medicineID)\r\n        public\r\n        view\r\n        returns (string memory)\r\n    {\r\n        require(medicineCount > 0);\r\n        if (medAvailable[_medicineID].stage == STAGE.Init)\r\n            return \"Medicine Ordered\";\r\n        else if (medAvailable[_medicineID].stage == STAGE.DeniedByRMS)\r\n            return \"Denied by Raw Material Supplier\";    \r\n        else if (medAvailable[_medicineID].stage == STAGE.RawMaterialSupply)\r\n            return \"Raw Material Supply Stage\";\r\n        else if (medAvailable[_medicineID].stage == STAGE.Manufacture)\r\n            return \"Manufacturing Stage\";\r\n        else if (medAvailable[_medicineID].stage == STAGE.Distribution)\r\n            return \"Distribution Stage\";\r\n        else if (medAvailable[_medicineID].stage == STAGE.Retail)\r\n            return \"Retail Stage\";\r\n        else if (medAvailable[_medicineID].stage == STAGE.sold)\r\n            return \"Medicine Sold\";\r\n        else if (medAvailable[_medicineID].stage == STAGE.Terminate)\r\n            return \"Medicine Terminated\";\r\n        return \"Unknown Stage\";\r\n    }\r\n\r\n    struct rawMaterialSupplier {\r\n        address addr;\r\n        uint256 id; \r\n        string name; \r\n        string place; \r\n    }\r\n    mapping(uint256 => rawMaterialSupplier) public RMS;\r\n    mapping(address => uint256) public rmsAddresses;\r\n\r\n    struct manufacturer {\r\n        address addr;\r\n        uint256 id;\r\n        string name;\r\n        string place;\r\n    }\r\n    mapping(uint256 => manufacturer) public MAN;\r\n    mapping(address => uint256) public manAddresses;\r\n\r\n    struct distributor {\r\n        address addr;\r\n        uint256 id;\r\n        string name;\r\n        string place; \r\n    }\r\n    mapping(uint256 => distributor) public DIST;\r\n    mapping(address => uint256) public distAddresses;\r\n\r\n    struct retailer {\r\n        address addr;\r\n        uint256 id; \r\n        string name; \r\n        string place;\r\n    }\r\n    mapping(uint256 => retailer) public RET;\r\n    mapping(address => uint256) public retAddresses;\r\n\r\n    modifier onlyByGov() {\r\n        require(msg.sender == Government);\r\n        _;\r\n    }\r\n    modifier onlyByRET {\r\n        uint256 _id = findRET(msg.sender);\r\n        require(_id > 0);\r\n        _;\r\n    }\r\n\r\n    function addRMS(address _address,string memory _name,string memory _place) public onlyByGov {\r\n        rmsCount++;\r\n        RMS[rmsCount] = rawMaterialSupplier(_address, rmsCount, _name, _place);\r\n        rmsAddresses[_address] = rmsCount;\r\n    }\r\n\r\n    function addManufacturer(address _address,string memory _name,string memory _place) public onlyByGov {\r\n        manCount++;\r\n        MAN[manCount] = manufacturer(_address, manCount, _name, _place);\r\n        manAddresses[_address] = manCount;\r\n    }\r\n\r\n    function addDistributor(address _address,string memory _name,string memory _place) public onlyByGov {\r\n        distCount++;\r\n        DIST[distCount] = distributor(_address, distCount, _name, _place);\r\n        distAddresses[_address] = distCount;\r\n    }\r\n\r\n    function addRetailer(address _address,string memory _name,string memory _place) public onlyByGov {\r\n        phCount++;\r\n        RET[phCount] = retailer(_address, phCount, _name, _place);\r\n        retAddresses[_address] = phCount;\r\n    }\r\n\r\n    //check RMS available in blockchain\r\n    function findRMS(address _address) private view returns (uint256) {\r\n        require(rmsCount > 0);\r\n        return rmsAddresses[_address];\r\n    }\r\n\r\n    function findMAN(address _address) private view returns (uint256) {\r\n        require(manCount > 0);\r\n        return manAddresses[_address];\r\n    }\r\n\r\n    function findDIS(address _address) private view returns (uint256) {\r\n        require(distCount > 0);\r\n        return distAddresses[_address];\r\n    }\r\n\r\n    function findRET(address _address) private view returns (uint256) {\r\n        require(phCount > 0);\r\n        return retAddresses[_address];\r\n    }\r\n\r\n    //to check if rm is available\r\n    function deniedByRMS(uint256 _medicineID) public  {\r\n        require(_medicineID > 0 && _medicineID <= medicineCount);\r\n        uint256 _id = findRMS(msg.sender);\r\n        require(_id > 0);\r\n        require(medAvailable[_medicineID].stage == STAGE.Init);\r\n        // medAvailable[_medicineID].RMSid = _id;\r\n        medAvailable[_medicineID].stage = STAGE.DeniedByRMS;\r\n    }\r\n\r\n    //supply raw materials from RMS supplier to manufacturer\r\n    function RMSsupply(uint256 _medicineID) public {\r\n        require(_medicineID > 0 && _medicineID <= medicineCount);\r\n        uint256 _id = findRMS(msg.sender);\r\n        require(_id > 0);\r\n        require(medAvailable[_medicineID].stage == STAGE.Init || medAvailable[_medicineID].stage == STAGE.DeniedByRMS ); //checking\r\n        medAvailable[_medicineID].RMSid = _id;\r\n        medAvailable[_medicineID].stage = STAGE.RawMaterialSupply;\r\n    }\r\n\r\n    //manufacture medicine\r\n    function Manufacturing(uint256 _medicineID) public {\r\n        require(_medicineID > 0 && _medicineID <= medicineCount);\r\n        uint256 _id = findMAN(msg.sender);\r\n        require(_id > 0);\r\n        require(medAvailable[_medicineID].stage == STAGE.RawMaterialSupply);\r\n        medAvailable[_medicineID].MANid = _id;\r\n        medAvailable[_medicineID].stage = STAGE.Manufacture;\r\n    }\r\n\r\n    // supply medicines from Manufacturer to distributor\r\n    function Distribute(uint256 _medicineID) public {\r\n        require(_medicineID > 0 && _medicineID <= medicineCount);\r\n        uint256 _id = findDIS(msg.sender);\r\n        require(_id > 0);\r\n        require(medAvailable[_medicineID].stage == STAGE.Manufacture);\r\n        medAvailable[_medicineID].DISTid = _id;\r\n        medAvailable[_medicineID].stage = STAGE.Distribution;\r\n    }\r\n\r\n    //supply medicines from distributor to retailer\r\n    function Retail(uint256 _medicineID) public {\r\n        require(_medicineID > 0 && _medicineID <= medicineCount);\r\n        uint256 _id = findRET(msg.sender);\r\n        require(_id > 0);\r\n        require(medAvailable[_medicineID].stage == STAGE.Distribution);\r\n        medAvailable[_medicineID].RETid = _id;\r\n        medAvailable[_medicineID].stage = STAGE.Retail;\r\n    }\r\n\r\n    //sell medicines from retailer to consumer\r\n    function sold(uint256 _medicineID) public {\r\n        require(_medicineID > 0 && _medicineID <= medicineCount);\r\n        uint256 _id = findRET(msg.sender);\r\n        require(_id > 0);\r\n        require(_id == medAvailable[_medicineID].RETid); \r\n        require(medAvailable[_medicineID].stage == STAGE.Retail);\r\n        medAvailable[_medicineID].stage = STAGE.sold;\r\n    }\r\n\r\n    function terminateMedicine(uint256 _medicineID) public onlyByGov {\r\n        require(_medicineID > 0 && _medicineID <= medicineCount, \"Invalid medicine ID\");\r\n        require(medAvailable[_medicineID].stage != STAGE.Init && medAvailable[_medicineID].stage != STAGE.sold, \"Cannot terminate medicine in Init or Sold stage\");\r\n        \r\n        medAvailable[_medicineID].stage = STAGE.Terminate;\r\n    }\r\n\r\n    //to know counterfeit attempts\r\n    function CounterfeitAttempt(uint256 _medicineID) public {\r\n        require(_medicineID > 0 && _medicineID <= medicineCount);\r\n        uint256 m_id = findMAN(msg.sender);\r\n        uint256 r_id = findRMS(msg.sender);\r\n        uint256 d_id = findDIS(msg.sender);\r\n        uint256 re_id = findRET(msg.sender);\r\n        if((m_id>0 && r_id>0 && d_id>0 && re_id>0) == false){\r\n            medAvailable[_medicineID].CounterfeitAttempts++;\r\n        }\r\n        // return medAvailable[_medicineID].CounterfeitAttempts;\r\n    }\r\n\r\n     // add new medicines to the stock\r\n    function addMedicine(string memory _name,string memory _expdate, string memory _description)\r\n        public\r\n        onlyByRET()\r\n    {\r\n        require((rmsCount > 0) && (manCount > 0) && (distCount > 0) && (phCount > 0 ));\r\n        medicineCount++;\r\n        medAvailable[medicineCount] = medicine(\r\n            medicineCount,\r\n            _name,\r\n            _expdate,\r\n            _description,\r\n            0,\r\n            0,\r\n            0,\r\n            0,\r\n            STAGE.Init,\r\n            0\r\n    );\r\n}\r\n}",
  "sourcePath": "C:\\Users\\user\\Desktop\\Pharmatrust\\Final_Year_Project\\contracts\\PharmaTrust.sol",
  "compiler": {
    "name": "solc",
    "version": "0.8.18+commit.87f61d96.Emscripten.clang"
  },
  "schemaVersion": "3.4.12",
  "updatedAt": "2024-02-11T01:54:15.458Z",
  "devdoc": {
    "kind": "dev",
    "methods": {},
    "version": 1
  },
  "userdoc": {
    "kind": "user",
    "methods": {},
    "version": 1
  }
}